S0110000417375726F574153442E73726563DA
S113000012C02CC02BC02BC029C028C027C026C0BA
S113001025C024C023C0F8C121C020C01FC01EC0F9
S11300201DC01CC01BC011241FBECFE5D4E0DEBF21
S1130030CDBF10E0A0E6B0E0E4E4F8E002C0059033
S11300400D92A237B107D9F720E0A2E7B0E001C0D2
S11300501D92A73FB207E1F79AD0F2C3D1CF1F9206
S11300600F920FB60F9211248F93809172008F5FBD
S1130070809372008F910F900FBE0F901F90189570
S113008090E09BBD8ABD70E079BD68BD089592B3D0
S11300909F7C892B82BB88B38F7C682B68BB0895B7
S11300A0811103C0C09892980AC0813019F4C09A93
S11300B092980895833019F4C09A929A08958230E0
S11300C011F4C098929A089522B330E4839FC0013A
S11300D011242F7B822B82BB089581110FC06111E3
S11300E005C0A998611112C0A8980895979884B37F
S11300F0836084BB85B3836085BBF3CF979884B357
S1130100836084BB85B3836085BBECCF089589E1AC
S113011085BD8EE683BD89B7806889BF8FE387BBC1
S113012084EF81BB81EA8FBD82E08EBD86E886B90B
S1130130979880E0C9DF61E081E0CFDF60E080E094
S1130140CCDF81E0ADDF60E280E2A1DF1BBC1ABC42
S113015019BC18BC789408951092720090917200A2
S11301609817E0F3089520E030EA4CE857E475D29C
S1130170F7D1862FF1DF0895CF93DF93C42FD22FC9
S113018086DF6D2F8C2F7CDFDF91CF910895CF9385
S1130190DF93CDB7DEB72F970FB6F894DEBF0FBE4F
S11301A0CDBFB5DF80E895E202D1C12CD12C760118
S11301B0812C912C54010F2EF0E34F2EF02D0F2E95
S11301C0F0E35F2EF02D0F2EF8EC6F2EF02D0F2E96
S11301D0F8EC7F2EF02D212C312C44D1813019F5EF
S11301E054D189838734F9F480E05ADF80E690E0C3
S11301F06ED1898168D18A81853499F08E010E5F30
S11302001F4F0CC042D1F80181938F0181E048DF78
S11302108DE459D1F8018081853419F023D18130DE
S113022089F38EE450D18981873561F461E081E0FE
S113023054DF80E049DF6894442445F868945524E9
S113024055F87FC0833561F461E081E046DF81E0E9
S11302503BDF6894442444F86894552454F871C0EE
S11302608134A1F460E081E038DF80E02DDF8CE4AC
S11302702AD163E070E0872D90E037D10F2EF0E3B0
S11302804F2EF02D6894552455F85BC08434A1F4A6
S113029061E080E022DF80E017DF82E514D163E0D3
S11302A070E0862D90E021D16894442445F80F2E07
S11302B0F0E35F2EF02D45C0873461F5CE01029640
S11302C051D2762E8A818A3549F0FE01339681E037
S11302D090E0019621912A35E1F702C081E090E097
S11302E0019621E030E02C0F3D1F820F931F3AD27C
S11302F0662E87E4E8D08CE4E6D063E070E0872DD6
S113030090E0F3D082E5DFD063E070E0862D90E0EA
S1130310ECD017C0883571F480E0D6DE60E080E070
S1130320DCDE0F2EF0E34F2EF02D0F2EF0E35F2EC8
S1130330F02D07C0883629F488248394912CA12CAD
S1130340B12C30EAC31636E8D30631E0E306F104F3
S113035030F48FEFC81AD80AE80AF80A06C0E8E5AC
S1130360E983C22CD32CE12CF12CF4E5F71520F011
S11303700F2EF5E57F2EF02D24E5261520F00F2E07
S1130380F5E56F2EF02D262D472D652D842DF4DEF9
S113039031E083169104A104B10409F01ECF87E66D
S11303A090E095D0822C932CA12CB12C16CF47E74A
S11303B050E050937600409375005093740040933E
S11303C07300A0E0B0E0880F991FAA1FBB1F880F1D
S11303D0991FAA1FBB1F9C01AD01220F331F441F8D
S11303E0551F220F331F441F551F60E072E18AE737
S11303F090E096D12150310930BD29B980B5866885
S113040080BD88E98AB908951F920F920FB60F92A2
S113041011242F938F939F93EF93FF93E091730095
S1130420F09174008CB1808380917300909174007A
S1130430019620E0873F920729F0909374008093FF
S1130440730006C087E790E0909374008093730074
S1130450FF91EF919F918F912F910F900FBE0F906D
S11304601F90189560E070E080E291E47CDE81E00A
S11304704091730050917400209175003091760082
S11304804217530709F480E00895E0917500F09154
S1130490760080917300909174008E179F0789F005
S11304A0819190E0E73FF90729F0F0937600E0931B
S11304B07500089527E730E03093760020937500A7
S11304C0089580E008955D9BFECF8CB90895CF9385
S11304D0DF93EC018881882329F02196F4DF899148
S11304E08111FCCFDF91CF910895FF920F931F9359
S11304F0CF93DF93CDB7DEB760970FB6F894DEBF26
S11305000FBECDBF8B014AE0BE016F5F7F4F50D15C
S11305108981882341F0FE013296F12CF394819174
S11305208111FCCF01C0F12C8F2D90E08017910731
S113053044F480E2C8DFF3948F2D90E08017910794
S1130540C4F3CE010196C3DF60960FB6F894DEBF04
S11305500FBECDBFDF91CF911F910F91FF900895F2
S11305605BD088F09F5790F0B92F9927B751A0F02E
S1130570D1F0660F771F881F991F1AF0BA95C9F733
S113058012C0B13081F062D0B1E008955FC0672F2E
S1130590782F8827B85F39F0B93FCCF386957795E3
S11305A06795B395D9F73EF49095809570956195CC
S11305B07F4F8F4F9F4F089597F99F6780E870E0B2
S11305C060E008959FEF80EC089500240A941616C5
S11305D0170618060906089500240A94121613062D
S11305E0140605060895092E0394000C11F48823BB
S11305F052F0BB0F40F4BF2B11F460FF04C06F5FD7
S11306007F4F8F4F9F4F089557FD9058440F551FAC
S113061059F05F3F71F04795880F97FB991F61F080
S11306209F3F79F087950895121613061406551FF7
S1130630F2CF4695F1DF08C0161617061806991F63
S1130640F1CF86957105610508940895E894BB2758
S113065066277727CB0197F908950BD0C4CFB5DF70
S113066028F0BADF18F0952309F0A6CFABCF1124F8
S1130670EECFCADFA0F3959FD1F3950F50E0551F3D
S1130680629FF001729FBB27F00DB11D639FAA27E3
S1130690F00DB11DAA1F649F6627B00DA11D661F32
S11306A0829F2227B00DA11D621F739FB00DA11D53
S11306B0621F839FA00D611D221F749F3327A00D0D
S11306C0611D231F849F600D211D822F762F6A2FA9
S11306D011249F5750408AF0E1F088234AF0EE0F2E
S11306E0FF1FBB1F661F771F881F91505040A9F73B
S11306F09E3F510570F060CFAACF5F3FECF3983E68
S1130700DCF3869577956795B795F795E7959F5FA1
S1130710C1F7FE2B880F911D9695879597F908953B
S1130720A1E21A2EAA1BBB1BFD010DC0AA1FBB1FF1
S1130730EE1FFF1FA217B307E407F50720F0A21B63
S1130740B30BE40BF50B661F771F881F991F1A94D0
S113075069F760957095809590959B01AC01BD01FA
S1130760CF0108951F93FC0199278827BC01E894C1
S113077011911032E9F3193010F01E30C8F31B3216
S113078049F01D3241F4689405C01CD0610F711DFD
S1130790811D911D119110531A30B8F33EF49095B8
S11307A08095709561957F4F8F4F9F4F1F9108954E
S11307B0BB274A3031F4992322F4BDE29095819508
S11307C09F4F16C0592F482F372F262F660F771F9C
S11307D0881F991F660F771F881F991F620F731F49
S11307E0841F951F660F771F881F991F0895BB27C5
S11307F0FB015527AA27880F991FAA1FA41710F0D9
S1130800A41B83955051B9F7A05DAA3308F0A95DE4
S1130810A193009779F7B111B1931192CB0100C064
S1130820DC01FC01672F71917723E1F7329704C053
S11308307C916D9370836291AE17BF07C8F30895DE
S1070840F894FFCF56
S11308442049465F47200048616E647368616B65A4
S105085420007E
S9030000FC
