:1000000012C02CC02BC02BC029C028C027C026C0BE
:1000100025C015C223C027C321C020C01FC01EC0D9
:100020001DC01CC01BC011241FBECFE5D4E0DEBF25
:10003000CDBF10E0A0E6B0E0E2EAFAE002C0059031
:100040000D92A437B107D9F721E0A4E7B0E001C0D1
:100050001D92A732B207E1F7CDD121C5D1CF1F92B2
:100060000F920FB60F9211248F93809193008F5FA0
:10007000809393008F910F900FBE0F901F90189553
:1000800090E09BBD8ABD70E079BD68BD089592B3D4
:100090009F7C892B82BB88B38F7C682B68BB0895BB
:1000A000811103C0C09892980AC0813019F4C09A97
:1000B00092980895833019F4C09A929A08958230E4
:1000C00011F4C098929A089522B330E4839FC0013E
:1000D00011242F7B822B82BB089581110FC06111E7
:1000E00005C0A998611112C0A8980895979884B383
:1000F000836084BB85B3836085BBF3CF979884B35B
:10010000836084BB85B3836085BBECCF089589E1B0
:1001100085BD8EE683BD89B7806889BF8FE387BBC5
:1001200084EF81BB81EA8FBD82E08EBD86E886B90F
:10013000979880E0C9DF61E081E0CFDF60E080E098
:10014000CCDF81E0ADDF60E280E2A1DF1BBC1ABC46
:1001500019BC18BC78940895FC0194B39C7F94BB9F
:10016000979A81E487B9369A349BFECF349A84B14A
:1001700025B130E0322F2227280F311D3183208313
:1001800080E487B9369A349BFECF349A84B125B186
:1001900030E0322F2227280F311D33832283089528
:1001A00010929300909193009817E0F3089520E047
:1001B00030EA4CE857E480D302D3862FF1DF08956C
:1001C000CF93DF93C42FD22FE0919100F091920052
:1001D000E436F1053CF0EF3FF10531F02CF0EFEFA4
:1001E000F0E002C0E4E6F0E0F0939200E0939100CA
:1001F000E0918F00F0919000E436F1053CF0EF3F84
:10020000F10531F02CF0EFEFF0E002C0E4E6F0E0B1
:10021000F0939000E0938F003ADF6D2F8C2F30DF4A
:10022000DF91CF9108952091910030919200243672
:1002300031053CF02F3F310531F02CF02FEF30E04D
:1002400002C024E630E03093920020939100209188
:100250008F0030919000243631053CF02F3F31055E
:1002600031F02CF02FEF30E002C024E630E0309384
:10027000900020938F0004DF08950F931F93CF9376
:10028000DF9380919400873531F480E280936000A1
:10029000809361008AC0833531F480E180936000EF
:1002A0008093610082C0813439F480E180936000E2
:1002B00080E28093610079C0843439F480E28093D5
:1002C000600080E18093610070C0873451F585E95A
:1002D00090E077D3C62FD0E0D0936500C093640040
:1002E000809195008A3549F0E6E9F0E081E090E000
:1002F000019621912A35E1F702C081E090E08B560A
:100300009F4F5FD3862F90E09093630080936200AD
:10031000D0939200C09391009093900080938F00AF
:1003200044C0823569F585E990E04BD360937E0047
:10033000809195008A3549F0E6E9F0E0C1E0D0E02F
:10034000219681918A35E1F702C0C1E0D0E08E01AB
:100350000B561F4FC80135D360937D00FE01EC564C
:10036000FF4F8081893529F0F801219681918935E7
:10037000E1F7CE018B569F4F24D360937C0015C0CC
:10038000883559F480E3809360008093610080E0B9
:100390009BDE60E080E0A1DE08C0883631F486E6AE
:1003A00090E0C4D180E790E0C1D1DF91CF911F915F
:1003B0000F910895CF93DF9384D18130C1F494D10C
:1003C00080939400873499F480E06ADE80919500F0
:1003D000853469F0C5E9D0E007C086D1899381E012
:1003E0005FDE8881853419F06CD18130B1F3DF9103
:1003F000CF9108958CDE80E895E206D182E083BF3C
:1004000089B7816089BF78940FE810E0C1E9D0E036
:10041000D1DF33DF85E486D163E070E08091830033
:100420009091840091D180E790E080D1F801208103
:1004300048816091610080916000C2DEE9CF1F9227
:100440000F920FB60F9211240F931F932F933F9388
:100450004F935F936F937F938F939F93AF93BF93CC
:10046000CF93DF93EF93FF938BE890E075DE80915D
:100470008B0090918C00883A02E0900770F42091F4
:100480008900213051F410928900E5E8F0E02081E4
:1004900031812F5F3F4F31832083813D924070F047
:1004A0008091890081110AC081E080938900E5E88C
:1004B000F0E08081918101969183808380918D000D
:1004C00090918E00883A22E0920770F420918A0081
:1004D000213051F410928A00E5E8F0E02281338166
:1004E0002F5F3F4F33832283813D924070F0809194
:1004F0008A0081110AC081E080938A00E5E8F0E07B
:10050000828193810196938382838091810090916F
:1005100082000196883C910528F490938200809394
:1005200081005DC01092820010928100E5E8F0E049
:100530004081518182819381481B590B50938400E3
:1005400040938300118210821382128220917E00D8
:100550002403F001259FF00D1124F0937B00E0931C
:100560007A0020917F0030918000309375002093B5
:10057000740060917D006403C001659F900D11249B
:10058000E901C80FD91FD0938000C0937F008091EC
:10059000780090917900DA01A81BB90B80917C005A
:1005A000282F8D012003B001219F700D112470931D
:1005B00077006093760050937900409378008091A3
:1005C0009100909192009E012E0F3F1F620F731FAA
:1005D000680F791F7093900060938F0024DEFF9165
:1005E000EF91DF91CF91BF91AF919F918F917F91CB
:1005F0006F915F914F913F912F911F910F910F90AC
:100600000FBE0F901F9018959C0187EA90E0909381
:10061000A6008093A5009093A4008093A300C90135
:10062000A0E0B0E0880F991FAA1FBB1F880F991F79
:10063000AA1FBB1F9C01AD01220F331F441F551F72
:10064000220F331F441F551F60E072E18AE790E0DC
:1006500096D12150310930BD29B980B5866880BD59
:1006600088E98AB908951F920F920FB60F9211244C
:100670002F938F939F93EF93FF93E091A300F091BB
:10068000A4008CB180838091A3009091A400019676
:1006900021E08732920729F09093A4008093A30071
:1006A00006C087EA90E09093A4008093A300FF9196
:1006B000EF919F918F912F910F900FBE0F901F90F0
:1006C000189560E070E080E291E471DD81E0409196
:1006D000A3005091A4002091A5003091A6004217DC
:1006E000530709F480E00895E091A500F091A60079
:1006F0008091A3009091A4008E179F0789F08191AB
:1007000091E0E732F90729F0F093A600E093A50005
:10071000089527EA30E03093A6002093A5000895BD
:1007200080E008955D9BFECF8CB90895CF93DF9351
:10073000EC018881882329F02196F4DF89918111C9
:10074000FCCFDF91CF910895EF92FF921F93CF934B
:10075000DF93CDB7DEB760970FB6F894DEBF0FBE5C
:10076000CDBF7B014AE0BE016F5F7F4F50D18981D1
:10077000882341F0FE01329610E01F5F81918111C4
:10078000FCCF01C010E0812F90E08E159F0544F44E
:1007900080E2C8DF1F5F812F90E08E159F05C4F3B4
:1007A000CE010196C3DF60960FB6F894DEBF0FBE90
:1007B000CDBFDF91CF911F91FF90EF9008955BD057
:1007C00088F09F5790F0B92F9927B751A0F0D1F03A
:1007D000660F771F881F991F1AF0BA95C9F712C0C4
:1007E000B13081F062D0B1E008955FC0672F782FFB
:1007F0008827B85F39F0B93FCCF386957795679530
:10080000B395D9F73EF490958095709561957F4F9B
:100810008F4F9F4F089597F99F6780E870E060E0E1
:1008200008959FEF80EC089500240A941616170689
:1008300018060906089500240A94121613061406D1
:1008400005060895092E0394000C11F4882352F034
:10085000BB0F40F4BF2B11F460FF04C06F5F7F4FEC
:100860008F4F9F4F089557FD9058440F551F59F0D3
:100870005F3F71F04795880F97FB991F61F09F3F8D
:1008800079F087950895121613061406551FF2CFB6
:100890004695F1DF08C0161617061806991FF1CF06
:1008A00086957105610508940895E894BB2766272D
:1008B0007727CB0197F908950BD0C4CFB5DF28F087
:1008C000BADF18F0952309F0A6CFABCF1124EECFF5
:1008D000CADFA0F3959FD1F3950F50E0551F629F9B
:1008E000F001729FBB27F00DB11D639FAA27F00D89
:1008F000B11DAA1F649F6627B00DA11D661F829FB0
:100900002227B00DA11D621F739FB00DA11D621F94
:10091000839FA00D611D221F749F3327A00D611DB1
:10092000231F849F600D211D822F762F6A2F112493
:100930009F5750408AF0E1F088234AF0EE0FFF1FE6
:10094000BB1F661F771F881F91505040A9F79E3F1D
:10095000510570F060CFAACF5F3FECF3983EDCF317
:10096000869577956795B795F795E7959F5FC1F75A
:10097000FE2B880F911D9695879597F90895A1E212
:100980001A2EAA1BBB1BFD010DC0AA1FBB1FEE1F09
:10099000FF1FA217B307E407F50720F0A21BB30B54
:1009A000E40BF50B661F771F881F991F1A9469F7D0
:1009B00060957095809590959B01AC01BD01CF012C
:1009C00008951F93FC0199278827BC01E894119191
:1009D0001032E9F3193010F01E30C8F31B3249F021
:1009E0001D3241F4689405C01CD0610F711D811D3A
:1009F000911D119110531A30B8F33EF490958095E3
:100A0000709561957F4F8F4F9F4F1F910895BB2722
:100A10004A3031F4992322F4BDE2909581959F4F9D
:100A200016C0592F482F372F262F660F771F881F84
:100A3000991F660F771F881F991F620F731F841FEE
:100A4000951F660F771F881F991F0895BB27FB010D
:100A50005527AA27880F991FAA1FA41710F0A41BB7
:100A600083955051B9F7A05DAA3308F0A95DA19311
:100A7000009779F7B111B1931192CB0100C0DC015D
:100A8000FC01672F71917723E1F7329704C07C91C5
:100A90006D9370836291AE17BF07C8F30895F89401
:020AA000FFCF86
:100AA2003030C800C80048616E647368616B6520AD
:040AB2000D0A000029
:00000001FF
