S0110000417375726F574153442E73726563DA
S113000012C02CC02BC02BC029C028C027C026C0BA
S113001025C059C223C00AC321C020C01FC01EC0AE
S11300201DC01CC01BC011241FBECFE5D4E0DEBF21
S1130030CDBF10E0A0E6B0E0E8E6FAE002C005902B
S11300400D92AA38B107D9F721E0AAE8B0E001C0BF
S11300501D92A933B207E1F76ED104C5D1CF1F9227
S11300600F920FB60F9211248F938091A5008F5F8A
S11300708093A5008F910F900FBE0F901F9018953D
S113008090E09BBD8ABD70E079BD68BD089592B3D0
S11300909F7C892B82BB88B38F7C682B68BB0895B7
S11300A0811103C0C09892980AC0813019F4C09A93
S11300B092980895833019F4C09A929A08958230E0
S11300C011F4C098929A089522B330E4839FC0013A
S11300D011242F7B822B82BB089581110FC06111E3
S11300E005C0A998611112C0A8980895979884B37F
S11300F0836084BB85B3836085BBF3CF979884B357
S1130100836084BB85B3836085BBECCF089589E1AC
S113011085BD8EE683BD89B7806889BF8FE387BBC1
S113012084EF81BB81EA8FBD82E08EBD86E886B90B
S1130130979880E0C9DF61E081E0CFDF60E080E094
S1130140CCDF81E0ADDF60E280E2A1DF1BBC1ABC42
S113015019BC18BC78940895FC0194B39C7F94BB9B
S1130160979A81E487B9369A349BFECF349A84B146
S113017025B130E0322F2227280F311D318320830F
S113018080E487B9369A349BFECF349A84B125B182
S113019030E0322F2227280F311D33832283089524
S11301A01092A5009091A5009817E0F3089520E01F
S11301B030EA4CE857E463D3E5D2862FF1DF0895A3
S11301C066DF68EC8CED5CDF0895CF92DF92EF92EE
S11301D0FF928091A600873559F480E280936000F5
S11301E08093610061E081E078DF80E06DDF7EC0B4
S11301F0833559F480E1809360008093610061E06D
S113020081E06BDF81E060DF71C0813461F480E301
S11302108093600080E28093610060E081E05DDFB4
S113022080E052DF63C0843461F480E28093600034
S113023080E38093610061E080E04FDF80E044DF91
S113024055C0873409F040C087EA90E09DD36B0124
S11302507C01DD24EE24FF24C0926600D092670066
S1130260E0926800F09269008091A7008A3549F015
S1130270E8EAF0E081E090E0019621912A35E1F787
S113028002C081E090E089559F4F7ED3DC01CB0111
S11302909927AA27BB278093620090936300A093B9
S11302A06400B0936500C0929D00D0929E00E092DD
S11302B09F00F092A0008093990090939A00A093DD
S11302C09B00B0939C0012C0883559F480E380935E
S11302D060008093610080E0F7DE60E080E0FDDE96
S11302E005C0883619F48AE690E003D2FF90EF90B7
S11302F0DF90CF900895CF93DF93C6D18130C1F4BE
S1130300D6D18093A600873499F480E0C9DE809129
S1130310A700853469F0C7EAD0E007C0C8D1899343
S113032081E0BEDE8881853419F0AED18130B1F32D
S1130330DF91CF910895EBDE80E895E248D183E028
S113034083BF89B7816089BF7894CAE8D0E00F2E53
S1130350F9E9AF2EF0E0BF2EF02D0DE910E0412CAD
S1130360512C32014A940F2EF4E6CF2ED12CE12CDD
S1130370F12CF02DC0DF29DF888199812A813B810E
S1130380821B930B9093900080938F0087E790E0FB
S1130390B0D163E070E080918F0090919000B7D16C
S11303A084E790E0A6D180919D0090919E00A09159
S11303B09F00B091A00084369105A105B105B0F469
S11303C0C0929D00D0929E00E0929F00F092A00007
S11303D08091990090919A00A0919B00B0919C000B
S11303E084369105A105B10570F032C040919900A1
S11303F050919A0060919B0070919C004436510585
S113040061057105B8F4C0929900D0929A00E09207
S11304109B00F0929C0080919D0090919E00A09181
S11304209F00B091A0008F3F9105A105B10509F08F
S113043038F424C08F3F9105A105B10549F040F07F
S113044040929D0050929E0060929F007092A00086
S11304508091990090919A00A0919B00B0919C008A
S11304608F3F9105A105B10549F040F040929900F4
S113047050929A0060929B0070929C00F50120813A
S1130480F8014081609161008091600099DE809163
S1130490A1009091A200A091A300B091A4000197A3
S11304A0A105B10509F066CF8FE790E022D184E77A
S11304B090E01FD11092A1001092A2001092A3000C
S11304C01092A40057CF1F920F920FB60F921124CF
S11304D02F933F934F935F936F937F938F939F9348
S11304E0AF93BF93EF93FF9385E990E035DE80915E
S11304F0950090919600883A22E0920758F4209152
S11305009300213039F410929300E1E9F0E0208166
S11305102F5F2083813D924060F080919300811190
S113052008C081E080939300E1E9F0E080818F5F6F
S113053080838091970090919800883A22E09207F6
S113054058F420919400213039F410929400E1E998
S1130550F0E021812F5F2183813D924060F0809102
S11305609400811108C081E080939400E1E9F0E0F7
S113057081818F5F818380918E008F5F8F3119F02D
S113058080938E0013C010928E00AAE8B0E0E1E9D7
S1130590F0E0808190E011969C938E93818190E0AD
S11305A013969C938E93129710821182FF91EF9170
S11305B0BF91AF919F918F917F916F915F914F9177
S11305C03F912F910F900FBE0F901F9018959C0193
S11305D089EB90E09093B8008093B7009093B600B5
S11305E08093B500C901A0E0B0E0880F991FAA1F4D
S11305F0BB1F880F991FAA1FBB1F9C01AD01220FAF
S1130600331F441F551F220F331F441F551F60E023
S113061072E18AE790E096D12150310930BD29B9C1
S113062080B5866880BD88E98AB908951F920F92C3
S11306300FB60F9211242F938F939F93EF93FF93F1
S1130640E091B500F091B6008CB180838091B50043
S11306509091B600019621E08933920729F0909396
S1130660B6008093B50006C089EB90E09093B60085
S11306708093B500FF91EF919F918F912F910F90EF
S11306800FBE0F901F90189560E070E080E291E437
S11306908EDD81E04091B5005091B6002091B70005
S11306A03091B8004217530709F480E00895E091AF
S11306B0B700F091B8008091B5009091B6008E1704
S11306C09F0789F0819191E0E933F90729F0F093CC
S11306D0B800E093B700089529EB30E03093B800F8
S11306E02093B700089580E008955D9BFECF8CB9F8
S11306F00895CF93DF93EC018881882329F0219614
S1130700F4DF89918111FCCFDF91CF910895EF92AD
S1130710FF921F93CF93DF93CDB7DEB760970FB6E9
S1130720F894DEBF0FBECDBF7B014AE0BE016F5F10
S11307307F4F50D18981882341F0FE01329610E029
S11307401F5F81918111FCCF01C010E0812F90E0E7
S11307508E159F0544F480E2C8DF1F5F812F90E06F
S11307608E159F05C4F3CE010196C3DF60960FB6C4
S1130770F894DEBF0FBECDBFDF91CF911F91FF90E4
S1130780EF9008955BD088F09F5790F0B92F992788
S1130790B751A0F0D1F0660F771F881F991F1AF088
S11307A0BA95C9F712C0B13081F062D0B1E00895B2
S11307B05FC0672F782F8827B85F39F0B93FCCF333
S11307C0869577956795B395D9F73EF4909580957E
S11307D0709561957F4F8F4F9F4F089597F99F674D
S11307E080E870E060E008959FEF80EC08950024B5
S11307F00A941616170618060906089500240A9482
S113080012161306140605060895092E0394000C07
S113081011F4882352F0BB0F40F4BF2B11F460FF96
S113082004C06F5F7F4F8F4F9F4F089557FD9058BF
S1130830440F551F59F05F3F71F04795880F97FBA0
S1130840991F61F09F3F79F087950895121613065A
S11308501406551FF2CF4695F1DF08C01616170689
S11308601806991FF1CF86957105610508940895BE
S1130870E894BB2766277727CB0197F908950BD017
S1130880C4CFB5DF28F0BADF18F0952309F0A6CF5E
S1130890ABCF1124EECFCADFA0F3959FD1F3950F10
S11308A050E0551F629FF001729FBB27F00DB11DF0
S11308B0639FAA27F00DB11DAA1F649F6627B00D80
S11308C0A11D661F829F2227B00DA11D621F739F69
S11308D0B00DA11D621F839FA00D611D221F749F77
S11308E03327A00D611D231F849F600D211D822FBE
S11308F0762F6A2F11249F5750408AF0E1F0882305
S11309004AF0EE0FFF1FBB1F661F771F881F915011
S11309105040A9F79E3F510570F060CFAACF5F3FCA
S1130920ECF3983EDCF3869577956795B795F79544
S1130930E7959F5FC1F7FE2B880F911D96958795CC
S113094097F90895A1E21A2EAA1BBB1BFD010DC045
S1130950AA1FBB1FEE1FFF1FA217B307E407F5076B
S113096020F0A21BB30BE40BF50B661F771F881F47
S1130970991F1A9469F760957095809590959B01DD
S1130980AC01BD01CF0108951F93FC01992788276D
S1130990BC01E89411911032E9F3193010F01E30C3
S11309A0C8F31B3249F01D3241F4689405C01CD0D1
S11309B0610F711D811D911D119110531A30B8F3EF
S11309C03EF490958095709561957F4F8F4F9F4F22
S11309D01F910895BB274A3031F4992322F4BDE2D4
S11309E0909581959F4F16C0592F482F372F262F4A
S11309F0660F771F881F991F660F771F881F991F1F
S1130A00620F731F841F951F660F771F881F991F1E
S1130A100895BB27FB015527AA27880F991FAA1FF2
S1130A20A41710F0A41B83955051B9F7A05DAA3305
S1130A3008F0A95DA193009779F7B111B1931192D0
S1130A40CB0100C0DC01FC01672F71917723E1F732
S1130A50329704C07C916D9370836291AE17BF0787
S10B0A60C8F30895F894FFCFD8
S1130A683030C8000000C800000048616E64736834
S1130A78616B65200D0A0052504D444946200048D8
S10D0A88616E647368616B65200001
S9030000FC
