:1000000012C02CC02BC02BC029C028C027C026C0BE
:1000100025C024C023C0AAC221C020C01FC01EC04A
:100020001DC01CC01BC011241FBECFE5D4E0DEBF25
:10003000CDBF10E0A0E6B0E0E8EAF9E002C005902C
:100040000D92AA37B107D9F721E0AAE7B0E001C0C5
:100050001D92AA31B207E1F7BCD1A4C4D1CF1F923F
:100060000F920FB60F9211248F93809186008F5FAD
:10007000809386008F910F900FBE0F901F90189560
:1000800090E09BBD8ABD70E079BD68BD089592B3D4
:100090009F7C892B82BB88B38F7C682B68BB0895BB
:1000A000811103C0C09892980AC0813019F4C09A97
:1000B00092980895833019F4C09A929A08958230E4
:1000C00011F4C098929A089522B330E4839FC0013E
:1000D00011242F7B822B82BB089581110FC06111E7
:1000E00005C0A998611112C0A8980895979884B383
:1000F000836084BB85B3836085BBF3CF979884B35B
:10010000836084BB85B3836085BBECCF089589E1B0
:1001100085BD8EE683BD89B7806889BF8FE387BBC5
:1001200084EF81BB81EA8FBD82E08EBD86E886B90F
:10013000979880E0C9DF61E081E0CFDF60E080E098
:10014000CCDF81E0ADDF60E280E2A1DF1BBC1ABC46
:1001500019BC18BC78940895FC0194B39C7F94BB9F
:10016000979A81E487B9369A349BFECF349A84B14A
:1001700025B130E0322F2227280F311D3183208313
:1001800080E487B9369A349BFECF349A84B125B186
:1001900030E0322F2227280F311D33832283089528
:1001A00010928600909186009817E0F3089520E061
:1001B00030EA4CE857E403D385D2862FF1DF089567
:1001C0000F931F93CF93DF93182F062FC42FD22F97
:1001D0008DE42BD28CE429D263E070E08C2F90E088
:1001E00036D282E522D263E070E08D2F90E02FD2EC
:1001F000602F812F4CDF6D2F8C2F42DFDF91CF914D
:100200001F910F910895CF92DF92EF92FF9280910C
:100210008700873559F480E2809360008093610005
:1002200061E081E05ADF80E04FDF90C0833559F410
:1002300080E1809360008093610061E081E04DDFA8
:1002400081E042DF83C08134A9F480E380936000C1
:1002500080E28093610060E081E03FDF80E034DF96
:100260008CE4E3D163E070E08091660090916700D8
:10027000EED16CC08434A9F480E28093600080E306
:100280008093610061E080E028DF80E01DDF82E58F
:10029000CCD163E070E08091620090916300D7D18F
:1002A00055C0873409F040C088E890E00DD36B0159
:1002B0007C01DD24EE24FF24C0926600D09267000A
:1002C000E0926800F0926900809188008A3549F0D8
:1002D000E9E8F0E081E090E0019621912A35E1F72C
:1002E00002C081E090E088579F4FEED2DC01CB0145
:1002F0009927AA27BB278093620090936300A0935D
:100300006400B0936500C0927E00D0927F00E092BE
:100310008000F092810080937A0090937B00A093FC
:100320007C00B0937D0012C0883559F480E380933F
:1003300060008093610080E0C7DE60E080E0CDDE99
:1003400005C0883619F48AE690E073D1FF90EF90EB
:10035000DF90CF900895CF93DF9336D18130C1F4F1
:1003600046D180938700873499F480E099DE8091AC
:100370008800853469F0C8E8D0E007C038D1899397
:1003800081E08EDE8881853419F01ED18130B1F391
:10039000DF91CF9108950F931F93CF93C82F8901B9
:1003A000C901DADE82E441D1C11107C063E070E027
:1003B000F801808191814BD108C0C13031F463E0F4
:1003C00070E0F8018281938142D1CF911F910F910A
:1003D0000895CF93DF9300D000D0CDB7DEB797DE7E
:1003E00080E895E294D0C12CD12C7601212C312CBF
:1003F000812C912C0F2EF4E64F2E512C612C712C58
:10040000F02D0F2EFAE7AF2EF0E0BF2EF02D0EE705
:1004100010E0A1DFF8DE9E012F5F3F4F40E050E08B
:1004200060E070E080E0B7DF9E012F5F3F4F40E06B
:1004300050E060E070E081E0AEDF85E790E0F9D069
:1004400063E070E080E090E002D180EAC81686E8C0
:10045000D80681E0E806F10430F4EFEFCE1ADE0AA8
:10046000EE0AFE0A08C088E5E7E8F0E08083C22CC7
:10047000D32CE82CF92C80917E0090917F00A091E4
:100480008000B091810084369105A105B10540F44A
:1004900040927E0050927F006092800070928100B6
:1004A00080917A0090917B00A0917C00B0917D00BA
:1004B00084369105A105B10540F440927A0050922E
:1004C0007B0060927C0070927D00F5012081F80134
:1004D0004081609161008091600072DE80918200B5
:1004E00090918300A0918400B09185000197A105AF
:1004F000B10509F08ECF8AE690E09BD02092820071
:1005000030928300809284009092850082CF9C017B
:100510008AE990E0909399008093980090939700D7
:1005200080939600C901A0E0B0E0880F991FAA1F30
:10053000BB1F880F991FAA1FBB1F9C01AD01220F73
:10054000331F441F551F220F331F441F551F60E0E8
:1005500072E18AE790E096D12150310930BD29B986
:1005600080B5866880BD88E98AB908951F920F9288
:100570000FB60F9211242F938F939F93EF93FF93B6
:10058000E0919600F09197008CB180838091960065
:1005900090919700019621E08A31920729F090937B
:1005A00097008093960006C08AE990E090939700A8
:1005B00080939600FF91EF919F918F912F910F90D3
:1005C0000FBE0F901F90189560E070E080E291E4FC
:1005D000EEDD81E0409196005091970020919800C7
:1005E000309199004217530709F480E00895E09193
:1005F0009800F091990080919600909197008E1745
:100600009F0789F0819191E0EA31F90729F0F09391
:100610009900E093980008952AE930E0309399001A
:1006200020939800089580E008955D9BFECF8CB9DB
:100630000895CF93DF93EC018881882329F02196D8
:10064000F4DF89918111FCCFDF91CF910895EF9272
:10065000FF921F93CF93DF93CDB7DEB760970FB6AE
:10066000F894DEBF0FBECDBF7B014AE0BE016F5FD5
:100670007F4F50D18981882341F0FE01329610E0EE
:100680001F5F81918111FCCF01C010E0812F90E0AC
:100690008E159F0544F480E2C8DF1F5F812F90E034
:1006A0008E159F05C4F3CE010196C3DF60960FB689
:1006B000F894DEBF0FBECDBFDF91CF911F91FF90A9
:1006C000EF9008955BD088F09F5790F0B92F99274D
:1006D000B751A0F0D1F0660F771F881F991F1AF04D
:1006E000BA95C9F712C0B13081F062D0B1E0089577
:1006F0005FC0672F782F8827B85F39F0B93FCCF3F8
:10070000869577956795B395D9F73EF49095809542
:10071000709561957F4F8F4F9F4F089597F99F6711
:1007200080E870E060E008959FEF80EC0895002479
:100730000A941616170618060906089500240A9446
:1007400012161306140605060895092E0394000CCC
:1007500011F4882352F0BB0F40F4BF2B11F460FF5B
:1007600004C06F5F7F4F8F4F9F4F089557FD905884
:10077000440F551F59F05F3F71F04795880F97FB65
:10078000991F61F09F3F79F087950895121613061F
:100790001406551FF2CF4695F1DF08C0161617064E
:1007A0001806991FF1CF8695710561050894089583
:1007B000E894BB2766277727CB0197F908950BD0DC
:1007C000C4CFB5DF28F0BADF18F0952309F0A6CF23
:1007D000ABCF1124EECFCADFA0F3959FD1F3950FD5
:1007E00050E0551F629FF001729FBB27F00DB11DB5
:1007F000639FAA27F00DB11DAA1F649F6627B00D45
:10080000A11D661F829F2227B00DA11D621F739F2D
:10081000B00DA11D621F839FA00D611D221F749F3B
:100820003327A00D611D231F849F600D211D822F82
:10083000762F6A2F11249F5750408AF0E1F08823C9
:100840004AF0EE0FFF1FBB1F661F771F881F9150D6
:100850005040A9F79E3F510570F060CFAACF5F3F8F
:10086000ECF3983EDCF3869577956795B795F79509
:10087000E7959F5FC1F7FE2B880F911D9695879591
:1008800097F90895A1E21A2EAA1BBB1BFD010DC00A
:10089000AA1FBB1FEE1FFF1FA217B307E407F50730
:1008A00020F0A21BB30BE40BF50B661F771F881F0C
:1008B000991F1A9469F760957095809590959B01A2
:1008C000AC01BD01CF0108951F93FC019927882732
:1008D000BC01E89411911032E9F3193010F01E3088
:1008E000C8F31B3249F01D3241F4689405C01CD096
:1008F000610F711D811D911D119110531A30B8F3B4
:100900003EF490958095709561957F4F8F4F9F4FE6
:100910001F910895BB274A3031F4992322F4BDE298
:10092000909581959F4F16C0592F482F372F262F0E
:10093000660F771F881F991F660F771F881F991FE3
:10094000620F731F841F951F660F771F881F991FE3
:100950000895BB27FB015527AA27880F991FAA1FB7
:10096000A41710F0A41B83955051B9F7A05DAA33CA
:1009700008F0A95DA193009779F7B111B193119295
:10098000CB0100C0DC01FC01672F71917723E1F7F7
:10099000329704C07C916D9370836291AE17BF074C
:0809A000C8F30895F894FFCF9D
:1009A8003030C8000000C800000048616E647368F9
:0A09B800616B65200052504D0000F5
:00000001FF
