:1000000012C02CC02BC02BC029C028C027C026C0BE
:1000100025C024C023C0FCC121C020C01FC01EC0F9
:100020001DC01CC01BC011241FBECFE5D4E0DEBF25
:10003000CDBF10E0A0E6B0E0ECE4F8E002C005902F
:100040000D92A237B107D9F720E0A2E7B0E001C0D6
:100050001D92A73FB207E1F79AD0F6C3D1CF1F9206
:100060000F920FB60F9211248F93809172008F5FC1
:10007000809372008F910F900FBE0F901F90189574
:1000800090E09BBD8ABD70E079BD68BD089592B3D4
:100090009F7C892B82BB88B38F7C682B68BB0895BB
:1000A000811103C0C09892980AC0813019F4C09A97
:1000B00092980895833019F4C09A929A08958230E4
:1000C00011F4C098929A089522B330E4839FC0013E
:1000D00011242F7B822B82BB089581110FC06111E7
:1000E00005C0A998611112C0A8980895979884B383
:1000F000836084BB85B3836085BBF3CF979884B35B
:10010000836084BB85B3836085BBECCF089589E1B0
:1001100085BD8EE683BD89B7806889BF8FE387BBC5
:1001200084EF81BB81EA8FBD82E08EBD86E886B90F
:10013000979880E0C9DF61E081E0CFDF60E080E098
:10014000CCDF81E0ADDF60E280E2A1DF1BBC1ABC46
:1001500019BC18BC789408951092720090917200A6
:100160009817E0F3089520E030EA4CE857E479D29C
:10017000FBD1862FF1DF0895CF93DF93C42FD22FC9
:1001800086DF6D2F8C2F7CDFDF91CF910895CF9389
:10019000DF93CDB7DEB72F970FB6F894DEBF0FBE53
:1001A000CDBFB5DF80E895E204D1C12CD12C76011A
:1001B000412C512C32010F2EF0E38F2EF02D0F2EFB
:1001C000F0E39F2EF02D0F2EF8ECAF2EF02D0F2E1A
:1001D000F8ECBF2EF02D0F2EF8E52F2EF02D312C40
:1001E00045D1813019F555D189838734F9F480E000
:1001F00057DF80E690E06FD1898169D18A818534AB
:1002000099F08E010E5F1F4F0CC043D1F80181930E
:100210008F0181E045DF8DE45AD1F801808185347A
:1002200019F024D1813089F38EE451D18981873549
:1002300061F461E081E051DF80E046DF689488246A
:1002400085F86894992495F87FC0833561F461E05E
:1002500081E043DF81E038DF6894882484F8689483
:10026000992494F871C08134A1F460E081E035DF15
:1002700080E02ADF8CE42BD163E070E08B2D90E0EE
:1002800038D10F2EF0E38F2EF02D6894992495F835
:100290005BC08434A1F461E080E01FDF80E014DF04
:1002A00082E515D163E070E08A2D90E022D1689458
:1002B000882485F80F2EF0E39F2EF02D45C087345B
:1002C00061F5CE01029652D2B62E8A818A3549F066
:1002D000FE01339681E090E0019621912A35E1F705
:1002E00002C081E090E0019621E030E02C0F3D1F3C
:1002F000820F931F3BD2A62E87E4E9D08CE4E7D08F
:1003000063E070E08B2D90E0F4D082E5E0D063E014
:1003100070E08A2D90E0EDD017C0883571F480E050
:10032000D3DE60E080E0D9DE0F2EF0E38F2EF02DDB
:100330000F2EF0E39F2EF02D07C0883629F44424B9
:100340004394512C612C712C30EAC31636E8D30645
:1003500031E0E306F10430F48FEFC81AD80AE80A56
:10036000F80A05C02982C32CD12CE12CF12CE4E53C
:10037000EB1520F00F2EF5E5BF2EF02DF4E5FA1564
:1003800020F00F2EF5E5AF2EF02D2A2D4B2D692DE7
:10039000882DF2DE21E0421651046104710409F057
:1003A0001FCF87E690E097D0432C512C612C712C05
:1003B00017CF9C0187E790E09093760080937500BB
:1003C0009093740080937300C901A0E0B0E0880F9F
:1003D000991FAA1FBB1F880F991FAA1FBB1F9C0133
:1003E000AD01220F331F441F551F220F331F441F1F
:1003F000551F60E072E18AE790E096D12150310903
:1004000030BD29B980B5866880BD88E98AB908956C
:100410001F920F920FB60F9211242F938F939F93D9
:10042000EF93FF93E0917300F09174008CB180839F
:100430008091730090917400019620E0873F9207AD
:1004400029F0909374008093730006C087E790E0D2
:100450009093740080937300FF91EF919F918F911F
:100460002F910F900FBE0F901F90189560E070E0D5
:1004700080E291E478DE81E0409173005091740055
:1004800020917500309176004217530709F480E0FF
:100490000895E0917500F09176008091730090913D
:1004A00074008E179F0789F0819190E0E73FF9076C
:1004B00029F0F0937600E0937500089527E730E087
:1004C0003093760020937500089580E008955D9B39
:1004D000FECF8CB90895CF93DF93EC0188818823F8
:1004E00029F02196F4DF89918111FCCFDF91CF9122
:1004F0000895EF92FF921F93CF93DF93CDB7DEB7AE
:1005000060970FB6F894DEBF0FBECDBF7B014AE007
:10051000BE016F5F7F4F50D18981882341F0FE017A
:10052000329610E01F5F81918111FCCF01C010E075
:10053000812F90E08E159F0544F480E2C8DF1F5F95
:10054000812F90E08E159F05C4F3CE010196C3DF85
:1005500060960FB6F894DEBF0FBECDBFDF91CF918E
:100560001F91FF90EF9008955BD088F09F5790F017
:10057000B92F9927B751A0F0D1F0660F771F881FC8
:10058000991F1AF0BA95C9F712C0B13081F062D044
:10059000B1E008955FC0672F782F8827B85F39F0E2
:1005A000B93FCCF3869577956795B395D9F73EF427
:1005B00090958095709561957F4F8F4F9F4F0895CF
:1005C00097F99F6780E870E060E008959FEF80EC06
:1005D000089500240A9416161706180609060895A9
:1005E00000240A9412161306140605060895092E0F
:1005F0000394000C11F4882352F0BB0F40F4BF2B7E
:1006000011F460FF04C06F5F7F4F8F4F9F4F0895BD
:1006100057FD9058440F551F59F05F3F71F04795B3
:10062000880F97FB991F61F09F3F79F08795089598
:10063000121613061406551FF2CF4695F1DF08C0B7
:10064000161617061806991FF1CF869571056105D4
:1006500008940895E894BB2766277727CB0197F97C
:1006600008950BD0C4CFB5DF28F0BADF18F095237A
:1006700009F0A6CFABCF1124EECFCADFA0F3959F30
:10068000D1F3950F50E0551F629FF001729FBB2779
:10069000F00DB11D639FAA27F00DB11DAA1F649F25
:1006A0006627B00DA11D661F829F2227B00DA11DD8
:1006B000621F739FB00DA11D621F839FA00D611D5E
:1006C000221F749F3327A00D611D231F849F600D7F
:1006D000211D822F762F6A2F11249F5750408AF0B8
:1006E000E1F088234AF0EE0FFF1FBB1F661F771F44
:1006F000881F91505040A9F79E3F510570F060CF80
:10070000AACF5F3FECF3983EDCF38695779567952B
:10071000B795F795E7959F5FC1F7FE2B880F911D61
:100720009695879597F90895A1E21A2EAA1BBB1BEF
:10073000FD010DC0AA1FBB1FEE1FFF1FA217B307AD
:10074000E407F50720F0A21BB30BE40BF50B661FC3
:10075000771F881F991F1A9469F760957095809587
:1007600090959B01AC01BD01CF0108951F93FC0141
:1007700099278827BC01E89411911032E9F31930C8
:1007800010F01E30C8F31B3249F01D3241F468945A
:1007900005C01CD0610F711D811D911D1191105359
:1007A0001A30B8F33EF490958095709561957F4F1F
:1007B0008F4F9F4F1F910895BB274A3031F49923E3
:1007C00022F4BDE2909581959F4F16C0592F482F76
:1007D000372F262F660F771F881F991F660F771FE9
:1007E000881F991F620F731F841F951F660F771F45
:1007F000881F991F0895BB27FB015527AA27880F3B
:10080000991FAA1FA41710F0A41B83955051B9F784
:10081000A05DAA3308F0A95DA193009779F7B11103
:10082000B1931192CB0100C0DC01FC01672F7191E3
:100830007723E1F7329704C07C916D9370836291C6
:0C084000AE17BF07C8F30895F894FFCF6F
:10084C002049465F47200048616E647368616B65A0
:02085C0020007A
:00000001FF
