:1000000012C02CC02BC02BC029C028C027C026C0BE
:1000100025C0D0C123C0FEC221C020C01FC01EC049
:100020001DC01CC01BC011241FBECFE5D4E0DEBF25
:10003000CDBF10E0A0E6B0E0E4E9FBE002C005902F
:100040000D92AC37B107D9F721E0ACE7B0E001C0C1
:100050001D92AB32B207E1F757D19AC5D1CF1F92AB
:100060000F920FB60F9211248F93809197008F5F9C
:10007000809397008F910F900FBE0F901F9018954F
:1000800090E09BBD8ABD70E079BD68BD089592B3D4
:100090009F7C892B82BB88B38F7C682B68BB0895BB
:1000A000811103C0C09892980AC0813019F4C09A97
:1000B00092980895833019F4C09A929A08958230E4
:1000C00011F4C098929A089522B330E4839FC0013E
:1000D00011242F7B822B82BB089581110FC06111E7
:1000E00005C0A998611112C0A8980895979884B383
:1000F000836084BB85B3836085BBF3CF979884B35B
:10010000836084BB85B3836085BBECCF089589E1B0
:1001100085BD8EE683BD89B7806889BF8FE387BBC5
:1001200084EF81BB81EA8FBD82E08EBD86E886B90F
:10013000979880E0C9DF61E081E0CFDF60E080E098
:10014000CCDF81E0ADDF60E280E2A1DF1BBC1ABC46
:1001500019BC18BC78940895FC0194B39C7F94BB9F
:10016000979A81E487B9369A349BFECF349A84B14A
:1001700025B130E0322F2227280F311D3183208313
:1001800080E487B9369A349BFECF349A84B125B186
:1001900030E0322F2227280F311D33832283089528
:1001A00010929700909197009817E0F3089520E03F
:1001B00030EA4CE857E4F9D33ED3862FF1DF0895B7
:1001C000CF93DF93C42FD22F62DF6D2F8C2F58DF98
:1001D000DF91CF910895CF92DF92EF92FF928091BD
:1001E0009800873531F480E2809364008093650045
:1001F00066C0833531F480E18093640080936500AC
:100200005EC0813439F480E38093640080E280939F
:10021000650055C0843439F480E28093640080E343
:10022000809365004CC08734C1F589E990E042D4E1
:100230006B017C01DD24EE24FF24C0926A00D09281
:100240006B00E0926C00F0926D00809199008A350D
:1002500049F0EAE9F0E081E090E0019621912A3549
:10026000E1F702C081E090E087569F4F23D4DC0184
:10027000CB019927AA27BB2780936600909367003C
:10028000A0936800B0936900D0929600C092950048
:10029000909394008093930012C0883559F480E3C2
:1002A000809364008093650080E00EDF60E080E072
:1002B00014DF05C0883619F48EE690E00ED2FF9068
:1002C000EF90DF90CF900895CF93DF93D1D181301D
:1002D000C1F4E1D180939800873499F480E0E0DEA6
:1002E00080919900853469F0C9E9D0E007C0D3D185
:1002F000899381E0D5DE8881853419F0B9D18130C8
:10030000B1F3DF91CF91089502DF80E895E253D1F8
:1003100082E083BF89B7816089BF7894C6E8D0E066
:1003200004E610E0EE24EA94F12CCEDF54DF8CE4F6
:10033000D0D1888163E070E0082E000C990BDBD1EE
:1003400082E5C7D1898163E070E0082E000C990B2B
:10035000D2D188E790E0C1D14091950050919600AC
:10036000443651053CF04F3F510531F02CF04E2DF5
:100370005F2D02C0402F512F50939600409395005F
:100380002091930030919400243631053CF02F3FAA
:10039000310531F02CF02E2D3F2D02C0202F312FB2
:1003A00030939400209393006091650080916400E5
:1003B00007DFBBCF1F920F920FB60F9211248F92BF
:1003C0009F92AF92BF92CF92DF92EF92FF922F93C4
:1003D0003F934F935F936F937F938F939F93AF93CD
:1003E000BF93CF93DF93EF93FF938FE890E0B4DE5A
:1003F00080918F0090919000883A22E0920758F403
:1004000020918D00213039F410928D00EBE8F0E05E
:1004100020812F5F2083813D924060F080918D008C
:10042000811108C081E080938D00EBE8F0E08081CD
:100430008F5F80838091910090919200883A22E0B2
:10044000920758F420918E00213039F410928E00DA
:10045000EBE8F0E021812F5F2183813D924060F045
:1004600080918E00811108C081E080938E00EBE8BE
:10047000F0E081818F5F8183809188008F5F8B3472
:1004800018F4809388007AC010928800EBE8F0E0BE
:10049000C081A6E8B0E0CC93818111968C93108244
:1004A00011820C2E000CDD0BC81BD10987FDD395E2
:1004B000D0938A00C0938900BE010D2E000C880BDA
:1004C000990BE7D12091600030916100409162006A
:1004D000509163006AD26B017C0160937E0070933F
:1004E0007F00809380009093810080917C009091A8
:1004F0007D00C80FD91FCF3FD10519F014F0CFEF01
:10050000D0E0C1308FEFD80714F4C1E0DFEFD09313
:100510007D00C0937C0010928200109283001092A4
:100520008400109285008091930090919400BC010A
:1005300080E090E0ACD14B015C0120E030E0A9010B
:10054000C701B60114D19B01AC01C501B4010FD1A3
:1005500072D1643671053CF06F3F710531F02CF0BB
:100560006FEF70E002C064E670E0709394006093F7
:1005700093008091950084DD81E092DD82E090DD42
:10058000FF91EF91DF91CF91BF91AF919F918F91AB
:100590007F916F915F914F913F912F91FF90EF90DD
:1005A000DF90CF90BF90AF909F908F900F900FBE35
:1005B0000F901F9018959C018BEA90E09093AA00F1
:1005C0008093A9009093A8008093A700C901A0E0A0
:1005D000B0E0880F991FAA1FBB1F880F991FAA1F81
:1005E000BB1F9C01AD01220F331F441F551F220F5B
:1005F000331F441F551F60E072E18AE790E038D254
:100600002150310930BD29B980B5866880BD88E99F
:100610008AB908951F920F920FB60F9211242F934B
:100620008F939F93EF93FF93E091A700F091A80021
:100630008CB180838091A7009091A800019621E061
:100640008B32920729F09093A8008093A70006C0F0
:100650008BEA90E09093A8008093A700FF91EF9120
:100660009F918F912F910F900FBE0F901F90189513
:1006700060E070E080E291E49ADD81E04091A700C3
:100680005091A8002091A9003091AA004217530769
:1006900009F480E00895E091A900F091AA0080910A
:1006A000A7009091A8008E179F0789F0819191E093
:1006B000EB32F90729F0F093AA00E093A90008951E
:1006C0002BEA30E03093AA002093A900089580E03F
:1006D00008955D9BFECF8CB90895CF93DF93EC0115
:1006E0008881882329F02196F4DF89918111FCCF3C
:1006F000DF91CF910895EF92FF921F93CF93DF93F5
:10070000CDB7DEB760970FB6F894DEBF0FBECDBF92
:100710007B014AE0BE016F5F7F4FF2D18981882360
:1007200041F0FE01329610E01F5F81918111FCCFF4
:1007300001C010E0812F90E08E159F0544F480E207
:10074000C8DF1F5F812F90E08E159F05C4F3CE0197
:100750000196C3DF60960FB6F894DEBF0FBECDBF23
:10076000DF91CF911F91FF90EF9008955058BB27D4
:10077000AA270ED0E0C0D1D030F0D6D020F031F48E
:100780009F3F11F41EF4C6C00EF4E095E7FBBCC019
:10079000E92FE2D080F3BA17620773078407950741
:1007A00018F071F49EF5FAC00EF4E0950B2EBA2FF6
:1007B000A02D0B01B90190010C01CA01A001112467
:1007C000FF27591B99F0593F50F4503E68F11A1613
:1007D000F040A22F232F342F4427585FF3CF4695A4
:1007E00037952795A795F0405395C9F77EF41F16C6
:1007F000BA0B620B730B840BBAF09150A1F0FF0F90
:10080000BB1F661F771F881FC2F70EC0BA0F621F7B
:10081000731F841F48F4879577956795B795F7956B
:100820009E3F08F0B3CF9395880F08F09927EE0FFD
:1008300097958795089598D088F09F5790F0B92F95
:100840009927B751A0F0D1F0660F771F881F991F25
:100850001AF0BA95C9F712C0B13081F09FD0B1E05B
:1008600008959CC0672F782F8827B85F39F0B93F6B
:10087000CCF3869577956795B395D9F73EF4909527
:100880008095709561957F4F8F4F9F4F0895E894A5
:1008900009C097FB3EF490958095709561957F4FC8
:1008A0008F4F9F4F9923A9F0F92F96E9BB27939576
:1008B000F695879577956795B795F111F8CFFAF486
:1008C000BB0F11F460FF1BC06F5F7F4F8F4F9F4FB7
:1008D00016C0882311F096E911C0772321F09EE815
:1008E000872F762F05C0662371F096E8862F70E07B
:1008F00060E02AF09A95660F771F881FDAF7880F55
:100900009695879597F9089597F99F6780E870E025
:1009100060E008959FEF80EC089500240A94161675
:10092000170618060906089500240A9412161306DD
:10093000140605060895092E0394000C11F488236B
:1009400052F0BB0F40F4BF2B11F460FF04C06F5F87
:100950007F4F8F4F9F4F089557FD9058440F551F5D
:1009600059F05F3F71F04795880F97FB991F61F031
:100970009F3F79F087950895121613061406551FA8
:10098000F2CF4695F1DF08C0161617061806991F14
:10099000F1CF86957105610508940895E894BB2709
:1009A00066277727CB0197F908950BD0C4CFB5DF21
:1009B00028F0BADF18F0952309F0A6CFABCF1124A9
:1009C000EECFCADFA0F3959FD1F3950F50E0551FEE
:1009D000629FF001729FBB27F00DB11D639FAA2794
:1009E000F00DB11DAA1F649F6627B00DA11D661FE3
:1009F000829F2227B00DA11D621F739FB00DA11D04
:100A0000621F839FA00D611D221F749F3327A00DBD
:100A1000611D231F849F600D211D822F762F6A2F59
:100A200011249F5750408AF0E1F088234AF0EE0FDE
:100A3000FF1FBB1F661F771F881F91505040A9F7EB
:100A40009E3F510570F060CFAACF5F3FECF3983E18
:100A5000DCF3869577956795B795F795E7959F5F52
:100A6000C1F7FE2B880F911D9695879597F90895EC
:100A7000A1E21A2EAA1BBB1BFD010DC0AA1FBB1FA2
:100A8000EE1FFF1FA217B307E407F50720F0A21B14
:100A9000B30BE40BF50B661F771F881F991F1A9481
:100AA00069F760957095809590959B01AC01BD01AB
:100AB000CF0108951F93FC0199278827BC01E89472
:100AC00011911032E9F3193010F01E30C8F31B32C7
:100AD00049F01D3241F4689405C01CD0610F711DAE
:100AE000811D911D119110531A30B8F33EF4909569
:100AF0008095709561957F4F8F4F9F4F1F910895FF
:100B0000BB274A3031F4992322F4BDE290958195B8
:100B10009F4F16C0592F482F372F262F660F771F4C
:100B2000881F991F660F771F881F991F620F731FF9
:100B3000841F951F660F771F881F991F0895BB2775
:100B4000FB015527AA27880F991FAA1FA41710F089
:100B5000A41B83955051B9F7A05DAA3308F0A95D95
:100B6000A193009779F7B111B1931192CB0100C015
:100B7000DC01FC01672F71917723E1F7329704C004
:100B80007C916D9370836291AE17BF07C8F308958F
:040B9000F894FFCF07
:100B9400000020403030C8000000C8000000486158
:0C0BA4006E647368616B65200D0A000030
:00000001FF
