:1000000012C02CC02BC02BC029C028C027C026C0BE
:1000100025C024C023C0A1C221C020C01FC01EC053
:100020001DC01CC01BC011241FBECFE5D4E0DEBF25
:10003000CDBF10E0A0E6B0E0E6E9F9E002C005902F
:100040000D92A63AB107D9F721E0A6EAB0E001C0C7
:100050001D92A634B207E1F7B4D19BC4D1CF1F9251
:100060000F920FB60F9211248F938091B2008F5F81
:100070008093B2008F910F900FBE0F901F90189534
:1000800090E09BBD8ABD70E079BD68BD089592B3D4
:100090009F7C892B82BB88B38F7C682B68BB0895BB
:1000A000811103C0C09892980AC0813019F4C09A97
:1000B00092980895833019F4C09A929A08958230E4
:1000C00011F4C098929A089522B330E4839FC0013E
:1000D00011242F7B822B82BB089581110FC06111E7
:1000E00005C0A998611112C0A8980895979884B383
:1000F000836084BB85B3836085BBF3CF979884B35B
:10010000836084BB85B3836085BBECCF089589E1B0
:1001100085BD8EE683BD89B7806889BF8FE387BBC5
:1001200084EF81BB81EA8FBD82E08EBD86E886B90F
:10013000979880E0C9DF61E081E0CFDF60E080E098
:10014000CCDF81E0ADDF60E280E2A1DF1BBC1ABC46
:1001500019BC18BC78940895FC0194B39C7F94BB9F
:10016000979A81E487B9369A349BFECF349A84B14A
:1001700025B130E0322F2227280F311D3183208313
:1001800080E487B9369A349BFECF349A84B125B186
:1001900030E0322F2227280F311D33832283089528
:1001A0001092B2009091B2009817E0F3089520E009
:1001B00030EA4CE857E4FAD27CD2862FF1DF08957A
:1001C000CF93DF93C42FD22F62DF84E790E028D251
:1001D0006D2F8C2F55DFDF91CF910895CF92DF9255
:1001E000EF92FF928091B300873559F480E28093BB
:1001F00060008093610061E081E06FDF80E064DF98
:100200007EC0833559F480E1809360008093610063
:1002100061E081E062DF81E057DF71C0813461F429
:1002200080E38093600080E28093610060E081E081
:1002300054DF80E049DF63C0843461F480E280935E
:10024000600080E38093610061E080E046DF80E051
:100250003BDF55C0873409F040C084EB90E02BD3DE
:100260006B017C01DD24EE24FF24C0926600D09255
:100270006700E0926800F09269008091B4008A35CE
:1002800049F0E5EBF0E081E090E0019621912A351C
:10029000E1F702C081E090E08C549F4F0CD3DC0169
:1002A000CB019927AA27BB27809362009093630014
:1002B000A0936400B0936500C092AA00D092AB00F6
:1002C000E092AC00F092AD008093A6009093A7005E
:1002D000A093A800B093A90012C0883559F480E318
:1002E000809360008093610080E0EEDE60E080E05B
:1002F000F4DE05C0883619F48AE690E091D1FF90CB
:10030000EF90DF90CF900895CF93DF9354D1813059
:10031000C1F464D18093B300873499F480E0C0DEE7
:100320008091B400853469F0C4EBD0E007C056D1A9
:10033000899381E0B5DE8881853419F03CD1813024
:10034000B1F3DF91CF9108951F93CF93DF93182FCF
:10035000E901C90101DF87E790E062D1111116C000
:1003600063E070E08881998169D1888199818835BD
:1003700022E0920720F48EE790E052D11EC08B3825
:100380009240D8F086E890E04BD117C01130A9F424
:1003900063E070E08A819B8151D18A819B8188359D
:1003A00022E0920720F48EE790E03AD106C08B3825
:1003B000924018F086E890E033D1DF91CF911F9101
:1003C0000895CF93DF9300D000D0CDB7DEB79FDE86
:1003D00080E895E293D00F2EF6EAEF2EF0E0FF2EA4
:1003E000F02D0AEA10E00F2EF4E68F2E912CA12CAE
:1003F000B12CF02D89DFF2DE9E012F5F3F4F40E0F0
:1004000050E060E070E080E09FDF9E012F5F3F4F93
:1004100040E050E060E070E081E096DF8EE890E040
:10042000FFD063E070E080E090E008D184E790E0E6
:10043000F7D082E990E0F4D084E790E0F1D04091E9
:100440006600509167006091680070916900409368
:10045000AA005093AB006093AC007093AD00809104
:10046000620090916300A0916400B0916500809358
:10047000A6009093A700A093A800B093A9004436CB
:1004800051056105710540F48092AA009092AB007D
:10049000A092AC00B092AD0084369105A105B105E3
:1004A00040F48092A6009092A700A092A800B0927B
:1004B000A900F7012081F8014081609161008091DD
:1004C00060007EDE8091AE009091AF00A091B00000
:1004D000B091B1000197A105B10509F08BCF8BE96F
:1004E00090E09ED084E790E09BD01092AE001092F6
:1004F000AF001092B0001092B1007CCF9C0186EC4E
:1005000090E09093C5008093C4009093C3008093C3
:10051000C200C901A0E0B0E0880F991FAA1FBB1F4D
:10052000880F991FAA1FBB1F9C01AD01220F331F0B
:10053000441F551F220F331F441F551F60E072E1F7
:100540008AE790E096D12150310930BD29B980B5B4
:10055000866880BD88E98AB908951F920F920FB608
:100560000F9211242F938F939F93EF93FF93E0911A
:10057000C200F091C3008CB180838091C200909141
:10058000C300019621E08634920729F09093C300BE
:100590008093C20006C086EC90E09093C3008093E5
:1005A000C200FF91EF919F918F912F910F900FBEFD
:1005B0000F901F90189560E070E080E291E4F7DD05
:1005C00081E04091C2005091C3002091C40030915D
:1005D000C5004217530709F480E00895E091C40074
:1005E000F091C5008091C2009091C3008E179F07C3
:1005F00089F0819191E0E634F90729F0F093C50084
:10060000E093C400089526EC30E03093C5002093B9
:10061000C400089580E008955D9BFECF8CB90895D5
:10062000CF93DF93EC018881882329F02196F4DFB2
:1006300089918111FCCFDF91CF910895EF92FF92C4
:100640001F93CF93DF93CDB7DEB760970FB6F894C3
:10065000DEBF0FBECDBF7B014AE0BE016F5F7F4FA3
:1006600050D18981882341F0FE01329610E01F5F4E
:1006700081918111FCCF01C010E0812F90E08E1597
:100680009F0544F480E2C8DF1F5F812F90E08E1544
:100690009F05C4F3CE010196C3DF60960FB6F894B0
:1006A000DEBF0FBECDBFDF91CF911F91FF90EF90C6
:1006B00008955BD088F09F5790F0B92F9927B751D4
:1006C000A0F0D1F0660F771F881F991F1AF0BA9516
:1006D000C9F712C0B13081F062D0B1E008955FC0B7
:1006E000672F782F8827B85F39F0B93FCCF386950C
:1006F00077956795B395D9F73EF490958095709569
:1007000061957F4F8F4F9F4F089597F99F6780E8BE
:1007100070E060E008959FEF80EC089500240A9453
:100720001616170618060906089500240A941216CC
:100730001306140605060895092E0394000C11F4FF
:10074000882352F0BB0F40F4BF2B11F460FF04C0AC
:100750006F5F7F4F8F4F9F4F089557FD9058440F05
:10076000551F59F05F3F71F04795880F97FB991F10
:1007700061F09F3F79F087950895121613061406CD
:10078000551FF2CF4695F1DF08C01616170618065A
:10079000991FF1CF86957105610508940895E89435
:1007A000BB2766277727CB0197F908950BD0C4CFD5
:1007B000B5DF28F0BADF18F0952309F0A6CFABCF4C
:1007C0001124EECFCADFA0F3959FD1F3950F50E02F
:1007D000551F629FF001729FBB27F00DB11D639FF3
:1007E000AA27F00DB11DAA1F649F6627B00DA11D99
:1007F000661F829F2227B00DA11D621F739FB00D3F
:10080000A11D621F839FA00D611D221F749F3327AE
:10081000A00D611D231F849F600D211D822F762F47
:100820006A2F11249F5750408AF0E1F088234AF044
:10083000EE0FFF1FBB1F661F771F881F9150504090
:10084000A9F79E3F510570F060CFAACF5F3FECF350
:10085000983EDCF3869577956795B795F795E7957C
:100860009F5FC1F7FE2B880F911D9695879597F98D
:100870000895A1E21A2EAA1BBB1BFD010DC0AA1FE1
:10088000BB1FEE1FFF1FA217B307E407F50720F0F9
:10089000A21BB30BE40BF50B661F771F881F991F74
:1008A0001A9469F760957095809590959B01AC01BD
:1008B000BD01CF0108951F93FC0199278827BC0132
:1008C000E89411911032E9F3193010F01E30C8F39A
:1008D0001B3249F01D3241F4689405C01CD0610FF1
:1008E000711D811D911D119110531A30B8F33EF402
:1008F00090958095709561957F4F8F4F9F4F1F9179
:100900000895BB274A3031F4992322F4BDE2909533
:1009100081959F4F16C0592F482F372F262F660FCE
:10092000771F881F991F660F771F881F991F620FF7
:10093000731F841F951F660F771F881F991F0895C7
:10094000BB27FB015527AA27880F991FAA1FA417A9
:1009500010F0A41B83955051B9F7A05DAA3308F09D
:10096000A95DA193009779F7B111B1931192CB01D1
:1009700000C0DC01FC01672F71917723E1F732970A
:1009800004C07C916D9370836291AE17BF07C8F36A
:060990000895F894FFCF6A
:100996003030C8000000C800000048616E6473680B
:1009A600616B65200D0A004F64446174610057480D
:1009B6004954450D0A00424C41434B0D0A00525022
:1009C6004D0052706D4469663D300048616E647337
:0609D60068616B65200062
:00000001FF
